{
  "_format": "hh-sol-artifact-1",
  "contractName": "Staking",
  "sourceName": "contracts/Staking.sol",
  "abi": [
    {
      "inputs": [],
      "stateMutability": "payable",
      "type": "constructor"
    },
    {
      "inputs": [
        {
          "internalType": "uint256",
          "name": "positionId",
          "type": "uint256"
        },
        {
          "internalType": "uint256",
          "name": "newUnlockDate",
          "type": "uint256"
        }
      ],
      "name": "changeUnlockDate",
      "outputs": [],
      "stateMutability": "nonpayable",
      "type": "function"
    },
    {
      "inputs": [
        {
          "internalType": "uint256",
          "name": "positionId",
          "type": "uint256"
        }
      ],
      "name": "closePosition",
      "outputs": [],
      "stateMutability": "nonpayable",
      "type": "function"
    },
    {
      "inputs": [],
      "name": "currentPositionId",
      "outputs": [
        {
          "internalType": "uint256",
          "name": "",
          "type": "uint256"
        }
      ],
      "stateMutability": "view",
      "type": "function"
    },
    {
      "inputs": [
        {
          "internalType": "uint256",
          "name": "numDays",
          "type": "uint256"
        }
      ],
      "name": "getInterestRate",
      "outputs": [
        {
          "internalType": "uint256",
          "name": "",
          "type": "uint256"
        }
      ],
      "stateMutability": "view",
      "type": "function"
    },
    {
      "inputs": [],
      "name": "getLockPeriods",
      "outputs": [
        {
          "internalType": "uint256[]",
          "name": "",
          "type": "uint256[]"
        }
      ],
      "stateMutability": "view",
      "type": "function"
    },
    {
      "inputs": [
        {
          "internalType": "uint256",
          "name": "positionId",
          "type": "uint256"
        }
      ],
      "name": "getPositionById",
      "outputs": [
        {
          "components": [
            {
              "internalType": "uint256",
              "name": "positionId",
              "type": "uint256"
            },
            {
              "internalType": "address",
              "name": "walletAddress",
              "type": "address"
            },
            {
              "internalType": "uint256",
              "name": "createdDate",
              "type": "uint256"
            },
            {
              "internalType": "uint256",
              "name": "unlockDate",
              "type": "uint256"
            },
            {
              "internalType": "uint256",
              "name": "percentInterest",
              "type": "uint256"
            },
            {
              "internalType": "uint256",
              "name": "weiStaked",
              "type": "uint256"
            },
            {
              "internalType": "uint256",
              "name": "weiInterest",
              "type": "uint256"
            },
            {
              "internalType": "bool",
              "name": "open",
              "type": "bool"
            }
          ],
          "internalType": "struct Staking.Position",
          "name": "",
          "type": "tuple"
        }
      ],
      "stateMutability": "view",
      "type": "function"
    },
    {
      "inputs": [
        {
          "internalType": "address",
          "name": "walletAddress",
          "type": "address"
        }
      ],
      "name": "getPositionIdsForAddress",
      "outputs": [
        {
          "internalType": "uint256[]",
          "name": "",
          "type": "uint256[]"
        }
      ],
      "stateMutability": "view",
      "type": "function"
    },
    {
      "inputs": [
        {
          "internalType": "uint256",
          "name": "",
          "type": "uint256"
        }
      ],
      "name": "lockPeriods",
      "outputs": [
        {
          "internalType": "uint256",
          "name": "",
          "type": "uint256"
        }
      ],
      "stateMutability": "view",
      "type": "function"
    },
    {
      "inputs": [
        {
          "internalType": "uint256",
          "name": "numDays",
          "type": "uint256"
        },
        {
          "internalType": "uint256",
          "name": "basisPoints",
          "type": "uint256"
        }
      ],
      "name": "modifyLockPeriods",
      "outputs": [],
      "stateMutability": "nonpayable",
      "type": "function"
    },
    {
      "inputs": [],
      "name": "owner",
      "outputs": [
        {
          "internalType": "address",
          "name": "",
          "type": "address"
        }
      ],
      "stateMutability": "view",
      "type": "function"
    },
    {
      "inputs": [
        {
          "internalType": "address",
          "name": "",
          "type": "address"
        },
        {
          "internalType": "uint256",
          "name": "",
          "type": "uint256"
        }
      ],
      "name": "positionIdsByAddress",
      "outputs": [
        {
          "internalType": "uint256",
          "name": "",
          "type": "uint256"
        }
      ],
      "stateMutability": "view",
      "type": "function"
    },
    {
      "inputs": [
        {
          "internalType": "uint256",
          "name": "",
          "type": "uint256"
        }
      ],
      "name": "positions",
      "outputs": [
        {
          "internalType": "uint256",
          "name": "positionId",
          "type": "uint256"
        },
        {
          "internalType": "address",
          "name": "walletAddress",
          "type": "address"
        },
        {
          "internalType": "uint256",
          "name": "createdDate",
          "type": "uint256"
        },
        {
          "internalType": "uint256",
          "name": "unlockDate",
          "type": "uint256"
        },
        {
          "internalType": "uint256",
          "name": "percentInterest",
          "type": "uint256"
        },
        {
          "internalType": "uint256",
          "name": "weiStaked",
          "type": "uint256"
        },
        {
          "internalType": "uint256",
          "name": "weiInterest",
          "type": "uint256"
        },
        {
          "internalType": "bool",
          "name": "open",
          "type": "bool"
        }
      ],
      "stateMutability": "view",
      "type": "function"
    },
    {
      "inputs": [
        {
          "internalType": "uint256",
          "name": "numDays",
          "type": "uint256"
        }
      ],
      "name": "stakeEther",
      "outputs": [],
      "stateMutability": "payable",
      "type": "function"
    },
    {
      "inputs": [
        {
          "internalType": "uint256",
          "name": "",
          "type": "uint256"
        }
      ],
      "name": "tiers",
      "outputs": [
        {
          "internalType": "uint256",
          "name": "",
          "type": "uint256"
        }
      ],
      "stateMutability": "view",
      "type": "function"
    }
  ],
  "bytecode": "0x6080604052336000806101000a81548173ffffffffffffffffffffffffffffffffffffffff021916908373ffffffffffffffffffffffffffffffffffffffff16021790555060006009819055506102bc600c6000601e8152602001908152602001600020819055506103e8600c6000605a8152602001908152602001600020819055506104b0600c600060b4815260200190815260200160002081905550600d601e9080600181540180825580915050600190039060005260206000200160009091909190915055600d605a9080600181540180825580915050600190039060005260206000200160009091909190915055600d60b490806001815401808255809150506001900390600052602060002001600090919091909150556114c78061012a6000396000f3fe6080604052600436106100dd5760003560e01c80638da5cb5b1161007f578063b0f0475b11610059578063b0f0475b14610301578063b838ec861461032a578063c7c9d05514610367578063e4f9084114610390576100dd565b80638da5cb5b1461026957806399fbab8814610294578063a126d601146102d8576100dd565b806340d98a44116100bb57806340d98a441461018757806341ee13be146101c457806345eae373146101ef5780634c8f2a781461022c576100dd565b8063039af9eb146100e25780630c196a741461011f5780631131c8cd1461015c575b600080fd5b3480156100ee57600080fd5b5061010960048036038101906101049190610dc3565b6103ac565b60405161011691906111ee565b60405180910390f35b34801561012b57600080fd5b5061014660048036038101906101419190610dc3565b6103c4565b60405161015391906111ee565b60405180910390f35b34801561016857600080fd5b506101716103e1565b60405161017e91906111ee565b60405180910390f35b34801561019357600080fd5b506101ae60048036038101906101a99190610d5e565b6103e7565b6040516101bb9190611130565b60405180910390f35b3480156101d057600080fd5b506101d961047e565b6040516101e69190611130565b60405180910390f35b3480156101fb57600080fd5b5061021660048036038101906102119190610d87565b6104d6565b60405161022391906111ee565b60405180910390f35b34801561023857600080fd5b50610253600480360381019061024e9190610dc3565b610507565b60405161026091906111ee565b60405180910390f35b34801561027557600080fd5b5061027e61052b565b60405161028b9190611115565b60405180910390f35b3480156102a057600080fd5b506102bb60048036038101906102b69190610dc3565b61054f565b6040516102cf989796959493929190611209565b60405180910390f35b3480156102e457600080fd5b506102ff60048036038101906102fa9190610dc3565b6105c4565b005b34801561030d57600080fd5b5061032860048036038101906103239190610dec565b61084d565b005b34801561033657600080fd5b50610351600480360381019061034c9190610dc3565b6108f7565b60405161035e91906111d2565b60405180910390f35b34801561037357600080fd5b5061038e60048036038101906103899190610dec565b6109d2565b005b6103aa60048036038101906103a59190610dc3565b610a7f565b005b600c6020528060005260406000206000915090505481565b6000600c6000838152602001908152602001600020549050919050565b60095481565b6060600b60008373ffffffffffffffffffffffffffffffffffffffff1673ffffffffffffffffffffffffffffffffffffffff16815260200190815260200160002080548060200260200160405190810160405280929190818152602001828054801561047257602002820191906000526020600020905b81548152602001906001019080831161045e575b50505050509050919050565b6060600d8054806020026020016040519081016040528092919081815260200182805480156104cc57602002820191906000526020600020905b8154815260200190600101908083116104b8575b5050505050905090565b600b60205281600052604060002081815481106104f257600080fd5b90600052602060002001600091509150505481565b600d818154811061051757600080fd5b906000526020600020016000915090505481565b60008054906101000a900473ffffffffffffffffffffffffffffffffffffffff1681565b600a6020528060005260406000206000915090508060000154908060010160009054906101000a900473ffffffffffffffffffffffffffffffffffffffff16908060020154908060030154908060040154908060050154908060060154908060070160009054906101000a900460ff16905088565b3373ffffffffffffffffffffffffffffffffffffffff16600a600083815260200190815260200160002060010160009054906101000a900473ffffffffffffffffffffffffffffffffffffffff1673ffffffffffffffffffffffffffffffffffffffff1614610668576040517f08c379a000000000000000000000000000000000000000000000000000000000815260040161065f90611192565b60405180910390fd5b60011515600a600083815260200190815260200160002060070160009054906101000a900460ff161515146106d2576040517f08c379a00000000000000000000000000000000000000000000000000000000081526004016106c9906111b2565b60405180910390fd5b6000600a600083815260200190815260200160002060070160006101000a81548160ff021916908315150217905550600a6000828152602001908152602001600020600301544211156107ca576000600a600083815260200190815260200160002060060154600a60008481526020019081526020016000206005015461075991906112dc565b90503373ffffffffffffffffffffffffffffffffffffffff168160405161077f90611100565b60006040518083038185875af1925050503d80600081146107bc576040519150601f19603f3d011682016040523d82523d6000602084013e6107c1565b606091505b5050505061084a565b3373ffffffffffffffffffffffffffffffffffffffff16600a60008381526020019081526020016000206005015460405161080490611100565b60006040518083038185875af1925050503d8060008114610841576040519150601f19603f3d011682016040523d82523d6000602084013e610846565b606091505b5050505b50565b3373ffffffffffffffffffffffffffffffffffffffff1660008054906101000a900473ffffffffffffffffffffffffffffffffffffffff1673ffffffffffffffffffffffffffffffffffffffff16146108db576040517f08c379a00000000000000000000000000000000000000000000000000000000081526004016108d290611152565b60405180910390fd5b80600c6000848152602001908152602001600020819055505050565b6108ff610cd7565b600a600083815260200190815260200160002060405180610100016040529081600082015481526020016001820160009054906101000a900473ffffffffffffffffffffffffffffffffffffffff1673ffffffffffffffffffffffffffffffffffffffff1673ffffffffffffffffffffffffffffffffffffffff16815260200160028201548152602001600382015481526020016004820154815260200160058201548152602001600682015481526020016007820160009054906101000a900460ff1615151515815250509050919050565b3373ffffffffffffffffffffffffffffffffffffffff1660008054906101000a900473ffffffffffffffffffffffffffffffffffffffff1673ffffffffffffffffffffffffffffffffffffffff1614610a60576040517f08c379a0000000000000000000000000000000000000000000000000000000008152600401610a5790611152565b60405180910390fd5b80600a6000848152602001908152602001600020600301819055505050565b6000600c60008381526020019081526020016000205411610ad5576040517f08c379a0000000000000000000000000000000000000000000000000000000008152600401610acc90611172565b60405180910390fd5b60405180610100016040528060095481526020013373ffffffffffffffffffffffffffffffffffffffff1681526020014281526020016201518083610b1a9190611363565b42610b2591906112dc565b8152602001600c6000848152602001908152602001600020548152602001348152602001610b67600c6000858152602001908152602001600020548434610cb3565b815260200160011515815250600a600060095481526020019081526020016000206000820151816000015560208201518160010160006101000a81548173ffffffffffffffffffffffffffffffffffffffff021916908373ffffffffffffffffffffffffffffffffffffffff16021790555060408201518160020155606082015181600301556080820151816004015560a0820151816005015560c0820151816006015560e08201518160070160006101000a81548160ff021916908315150217905550905050600b60003373ffffffffffffffffffffffffffffffffffffffff1673ffffffffffffffffffffffffffffffffffffffff1681526020019081526020016000206009549080600181540180825580915050600190039060005260206000200160009091909190915055600160096000828254610ca991906112dc565b9250508190555050565b60006127108285610cc49190611363565b610cce9190611332565b90509392505050565b60405180610100016040528060008152602001600073ffffffffffffffffffffffffffffffffffffffff16815260200160008152602001600081526020016000815260200160008152602001600081526020016000151581525090565b600081359050610d4381611463565b92915050565b600081359050610d588161147a565b92915050565b600060208284031215610d7057600080fd5b6000610d7e84828501610d34565b91505092915050565b60008060408385031215610d9a57600080fd5b6000610da885828601610d34565b9250506020610db985828601610d49565b9150509250929050565b600060208284031215610dd557600080fd5b6000610de384828501610d49565b91505092915050565b60008060408385031215610dff57600080fd5b6000610e0d85828601610d49565b9250506020610e1e85828601610d49565b9150509250929050565b6000610e3483836110e2565b60208301905092915050565b610e49816113bd565b82525050565b610e58816113bd565b82525050565b6000610e6982611297565b610e7381856112af565b9350610e7e83611287565b8060005b83811015610eaf578151610e968882610e28565b9750610ea1836112a2565b925050600181019050610e82565b5085935050505092915050565b610ec5816113cf565b82525050565b610ed4816113cf565b82525050565b6000610ee76025836112cb565b91507f4f6e6c79206f776e6572206d6179206d6f64696679207374616b696e6720706560008301527f72696f64730000000000000000000000000000000000000000000000000000006020830152604082019050919050565b6000610f4d6011836112cb565b91507f4d617070696e67206e6f7420666f756e640000000000000000000000000000006000830152602082019050919050565b6000610f8d6029836112cb565b91507f4f6e6c7920706f736974696f6e2063726561746f72206d6179206d6f6469667960008301527f20706f736974696f6e00000000000000000000000000000000000000000000006020830152604082019050919050565b6000610ff36012836112cb565b91507f506f736974696f6e20697320636c6f73656400000000000000000000000000006000830152602082019050919050565b60006110336000836112c0565b9150600082019050919050565b6101008201600082015161105760008501826110e2565b50602082015161106a6020850182610e40565b50604082015161107d60408501826110e2565b50606082015161109060608501826110e2565b5060808201516110a360808501826110e2565b5060a08201516110b660a08501826110e2565b5060c08201516110c960c08501826110e2565b5060e08201516110dc60e0850182610ebc565b50505050565b6110eb816113fb565b82525050565b6110fa816113fb565b82525050565b600061110b82611026565b9150819050919050565b600060208201905061112a6000830184610e4f565b92915050565b6000602082019050818103600083015261114a8184610e5e565b905092915050565b6000602082019050818103600083015261116b81610eda565b9050919050565b6000602082019050818103600083015261118b81610f40565b9050919050565b600060208201905081810360008301526111ab81610f80565b9050919050565b600060208201905081810360008301526111cb81610fe6565b9050919050565b6000610100820190506111e86000830184611040565b92915050565b600060208201905061120360008301846110f1565b92915050565b60006101008201905061121f600083018b6110f1565b61122c602083018a610e4f565b61123960408301896110f1565b61124660608301886110f1565b61125360808301876110f1565b61126060a08301866110f1565b61126d60c08301856110f1565b61127a60e0830184610ecb565b9998505050505050505050565b6000819050602082019050919050565b600081519050919050565b6000602082019050919050565b600082825260208201905092915050565b600081905092915050565b600082825260208201905092915050565b60006112e7826113fb565b91506112f2836113fb565b9250827fffffffffffffffffffffffffffffffffffffffffffffffffffffffffffffffff0382111561132757611326611405565b5b828201905092915050565b600061133d826113fb565b9150611348836113fb565b92508261135857611357611434565b5b828204905092915050565b600061136e826113fb565b9150611379836113fb565b9250817fffffffffffffffffffffffffffffffffffffffffffffffffffffffffffffffff04831182151516156113b2576113b1611405565b5b828202905092915050565b60006113c8826113db565b9050919050565b60008115159050919050565b600073ffffffffffffffffffffffffffffffffffffffff82169050919050565b6000819050919050565b7f4e487b7100000000000000000000000000000000000000000000000000000000600052601160045260246000fd5b7f4e487b7100000000000000000000000000000000000000000000000000000000600052601260045260246000fd5b61146c816113bd565b811461147757600080fd5b50565b611483816113fb565b811461148e57600080fd5b5056fea26469706673582212208d69973ae298486ad29432859d33fef9f2900eced67b39b42ea75d467046e5fc64736f6c63430008000033",
  "linkReferences": {},
  "deployedLinkReferences": {}
}